:020000040000FA
:100000000C9462000C948A000C948A000C948A0070
:100010000C948A000C948A000C948A000C948A0038
:100020000C948A000C948A000C948A000C948A0028
:100030000C948A000C948A000C948A000C948A0018
:100040000C945F080C948A000C942D080C940708FB
:100050000C948A000C948A000C948A000C948A00F8
:100060000C948A000C948A000000000024002700F1
:100070002A0000000000250028002B0000000000DE
:1000800023002600290004040404040404040202DA
:100090000202020203030303030301020408102007
:1000A0004080010204081020010204081020000012
:1000B0000008000201000003040700000000000027
:1000C0000000A90811241FBECFEFD8E0DEBFCDBFCE
:1000D00012E0A0E0B1E0E4E0FFE102C005900D9283
:1000E000A031B107D9F722E0A0E1B2E001C01D9232
:1000F000AC3EB207E1F710E0C2E6D0E004C02197C1
:10010000FE010E947A0FC136D107C9F70E940E097D
:100110000C94800F0C9400003F924F925F926F926C
:100120007F928F929F92AF92BF92CF92DF92EF9287
:10013000FF920F931F93CF93DF937C01062F6C01E7
:1001400084E0C80ED11C11E01017A0F5F6018190D3
:100150009190A190B1906F01312EC32DD0E0C1508C
:10016000D04CCC0FDD1FCC0FDD1FF701EC0FFD1FB6
:1001700040805180628073802496CE0DDF1DA301E4
:100180009201C501B4010E949D0D87FF07C04882FE
:1001900059826A827B823A943110DFCF84E0389EA4
:1001A000F0011124EE0DFF1D80829182A282B382A4
:1001B0001F5FCACFDF91CF911F910F91FF90EF90FA
:1001C000DF90CF90BF90AF909F908F907F906F9077
:1001D0005F904F903F900895AF92BF92CF92DF9281
:1001E000EF92FF920F931F93CF93DF936C017B01EC
:1001F0008B01040F151FEB015E01AE18BF08C0177D
:10020000D10759F06991D601ED91FC910190F081EF
:10021000E02DC6010995892B79F7C501DF91CF91B2
:100220001F910F91FF90EF90DF90CF90BF90AF9014
:100230000895FC01538D448D252F30E0842F90E0EC
:10024000821B930B541710F0CF96089501970895D1
:10025000FC01918D828D981761F0A28DAE0FBF2F9A
:10026000B11D5D968C91928D9F5F9F73928F90E0F0
:1002700008958FEF9FEF0895FC01918D828D98175F
:1002800031F0828DE80FF11D858D90E008958FEF9C
:100290009FEF0895FC01918D228D892F90E0805C65
:1002A0009F4F821B91098F739927089583E292E0F3
:1002B0000E944A0121E0892B09F420E0822F089551
:1002C00080E090E0892B29F00E94560181110C9466
:1002D00000000895FC01A48DA80FB92FB11DA35AE9
:1002E000BF4F2C91848D90E001968F739927848F56
:1002F000A689B7892C93A089B1898C918370806479
:100300008C93938D848D981306C00288F389E02D19
:1003100080818F7D80830895EF92FF920F931F93CA
:10032000CF93DF93EC0181E0888F9B8D8C8D9813A8
:100330001AC0E889F989808185FF15C09FB7F894B4
:10034000EE89FF896083E889F98980818370806400
:1003500080839FBF81E090E0DF91CF911F910F914B
:10036000FF90EF900895F62E0B8D10E00F5F1F4F5A
:100370000F731127E02E8C8D8E110CC00FB607FC69
:10038000FACFE889F989808185FFF5CFCE010E94F7
:100390006A01F1CFEB8DEC0FFD2FF11DE35AFF4FFA
:1003A000F0829FB7F8940B8FEA89FB898081806285
:1003B000CFCFCF93DF93EC01888D8823B9F0AA8942
:1003C000BB89E889F9898C9185FD03C0808186FD10
:1003D0000DC00FB607FCF7CF8C9185FFF2CF80815F
:1003E00085FFEDCFCE010E946A01E9CFDF91CF9169
:1003F0000895833081F028F4813099F08230A9F09B
:1004000008958730A9F08830C9F08430B1F4809124
:1004100080008F7D03C0809180008F778093800063
:10042000089584B58F7784BD089584B58F7DFBCF03
:100430008091B0008F778093B00008958091B000D4
:100440008F7DF9CFCF93DF93282F30E0F901E2556C
:10045000FF4F8491F901E656FF4FD491F901EA5715
:10046000FF4FC491CC23A1F081110E94F901EC2F20
:10047000F0E0EE0FFF1FE458FF4FA591B491EC910F
:10048000ED2381E090E009F480E0DF91CF910895C1
:1004900080E090E0FACF1F93CF93DF93282F30E0D6
:1004A000F901E255FF4F8491F901E656FF4FD491CF
:1004B000F901EA57FF4FC491CC23A9F0162F8111FF
:1004C0000E94F901EC2FF0E0EE0FFF1FEE58FF4FF6
:1004D000A591B4918FB7F894EC91111108C0D09503
:1004E000DE23DC938FBFDF91CF911F910895DE2B28
:1004F000F8CFCF93DF93C0ECD2E061E089810E9416
:100500004B028BEF90E00197F1F760E089810E9448
:100510004B021B821C821D821E8280E090E0A0E8BC
:10052000BFE38F839887A987BA8780E88A831B8671
:100530001C861D861E861B8ADF91CF910895CF935E
:10054000DF9390E0FC01E656FF4F24918A579F4FBE
:10055000FC0184918823D1F090E0880F991FFC0161
:10056000E859FF4FA591B491FC01EE58FF4FC5919A
:10057000D49161110EC09FB7F8948C91E22FE09551
:100580008E238C932881E223E8839FBFDF91CF9154
:1005900008958FB7F894EC91E22BEC938FBFF6CFD0
:1005A0001F93CF93DF93182FEB0161E00E949F020E
:1005B000209739F460E0812FDF91CF911F910C9447
:1005C0004B02CF3FD10511F461E0F5CFE12FF0E010
:1005D000E255FF4FE491E33031F140F4E130B1F006
:1005E000E230E1F0C038D1057CF7E4CFE73029F103
:1005F000E83059F1E430B1F7809180008062809357
:100600008000D0938B00C0938A0004C084B58068BA
:1006100084BDC7BDDF91CF911F91089584B58062DD
:1006200084BDC8BDF7CF8091800080688093800032
:10063000D0938900C0938800EDCF8091B00080688E
:100640008093B000C093B300E5CF8091B00080628A
:100650008093B000C093B400DDCF3FB7F894809191
:10066000110290911202A0911302B091140226B5CA
:10067000A89B05C02F3F19F00196A11DB11D3FBFDA
:10068000BA2FA92F982F8827BC01CD01620F711DA9
:10069000811D911D42E0660F771F881F991F4A95A3
:1006A000D1F70895089590E080E00895EF92FF92C9
:1006B0000F931F93CF93DF93F090C102E090C0029D
:1006C00008E010E0C0E0D0E861E08F2D0E944B020E
:1006D0008E2D0E942202019709F4CD2B60E08F2D10
:1006E0000E944B02D6950150110971F78C2FDF91B2
:1006F000CF911F910F91FF90EF900895FF920F936C
:100700001F93CF93DF938091C0020E942202019732
:10071000D1F310E0F8940E945603D82F0E9456039C
:10072000F82E0E945603082F8091C202803829F0CB
:10073000803471F0C2E0803261F061E08091C102EA
:100740000E944B0260E08091C1020E944B020DC0EA
:10075000C3E061E08091C1020E944B0260E08091A1
:10076000C1020E944B02C150A1F77894D7FD1FEF40
:100770002FB7F89480911F0290912002A09121023E
:10078000B09122022FBF8093CB029093CC02A09312
:10079000CD02B093CE02602F7F2D8D2F912F0E941E
:1007A0004C0EDF91CF911F910F91FF900895CF9242
:1007B000DF92EF92FF92CF93DF93C82FC12CD12C01
:1007C0007601D0E00E947E039B01AC01C701B60117
:1007D0000E94310D6B017C01DF5FCD13F3CF6C2FD5
:1007E00070E090E080E00E944C0E9B01AC01C701DC
:1007F000B6010E94A20DDF91CF91FF90EF90DF90A4
:10080000CF9008958F929F92AF92BF92CF92DF9236
:10081000EF92FF920F931F93CF93DF93CDB7DEB785
:10082000EC970FB6F894DEBF0FBECDBF082F8091B6
:10083000D302823079F138F4813009F473C0802F0B
:100840000E94D70306C0833039F08430C1F70E947C
:100850007E036B017C0192C00E947E036B017C01D0
:1008600011E0011709F48AC00E947E03A7019601D6
:100870000E94300D20E030E040E05FE30E94010F75
:100880009B01AC01C701B6010E94310D6B017C01D7
:100890001F5FE7CF033008F403E0CE0101966C013F
:1008A00010E07C010E947E03D6016D937D938D93B1
:1008B0009D936D011F5F1017A8F3602FC7010E9461
:1008C0008C00202F30E02E5F3F4F359527953595D2
:1008D0002795D22E0150021B122F812C912C5401EE
:1008E000612F6D19011790F0B4E01B9FF0011124E6
:1008F000EE0DFF1D2081318142815381C501B4017C
:100900000E94310D4B015C011F5FEACF70E090E067
:1009100080E00E944C0E9B01AC01C501B4010E9415
:10092000A20D97CFF02EE3E00E1710F443E0F42E63
:10093000CE0101966C01E12C8C010E947E03D60150
:100940006D937D938D939D936D01E394EF14A8F3C4
:100950006F2DC8010E948C002F2D2695E22FF0E00C
:10096000CF01880F991F880F991FF0FE2AC0080F2A
:10097000191FF801C080D180E280F3806091C3022A
:100980007091C4028091C5029091C6020E944C0EE3
:100990009B01AC01C701B6010E94300DEC960FB669
:1009A000F894DEBF0FBECDBFDF91CF911F910F91A5
:1009B000FF90EF90DF90CF90BF90AF909F908F907F
:1009C00008953196EE0FFF1FEE0FFF1FE00FF11F8E
:1009D000080F191FD8012D913D914D915C916081B7
:1009E0007181828193810E94310D20E030E040E0EE
:1009F0005FE30E94010F2DCF0E9402042091C702E5
:100A00003091C8024091C9025091CA020E94010F60
:100A10000895CF93DF93EC0160E08E810E944B023A
:100A200061E08E810E944B0260E08E810E944B0249
:100A30008BE891E00197F1F7DF91CF910895CF9284
:100A4000DF92EF92FF920F931F93CF93DF936C018E
:100A50007C0187E0E80EF11CD0E0C0E0062F10E03A
:100A6000B8010C2E02C0759567950A94E2F7617083
:100A7000F70181917F010E944B022196C430D1057C
:100A800079F7C601DF91CF911F910F91FF90EF9001
:100A9000DF90CF900C940905CF92DF92EF92FF92F6
:100AA0000F931F93CF93DF93EC01F62E642F8C816D
:100AB0000E944B028D818F3F19F060E00E944B0233
:100AC0000F2D10E08F8584FF25C06E0187E0C80ED2
:100AD000D11CF12CE12CB8010E2C02C07595679544
:100AE0000A94E2F76170F60181916F010E944B0256
:100AF000FFEFEF1AFF0A88E0E816F10461F7CE0174
:100B0000DF91CF911F910F91FF90EF90DF90CF90E9
:100B10000C940905B80184E0759567958A95E1F70D
:100B2000CE010E941F056F2DCE01DF91CF911F9145
:100B30000F91FF90EF90DF90CF900C941F0540E055
:100B4000682F84ED92E00C944C0581E00E949F0593
:100B50008BE39FE10197F1F70895CF93DF93823004
:100B600029F49091E30298609093E3028093E70266
:100B70001092E80280E48093E90280E18093EA0227
:100B800080E58093EB0261E08091D8020E949F0291
:100B90008091D9028F3F19F061E00E949F0261E0CD
:100BA0008091DA020E949F02C4EDD2E09E01245D92
:100BB00032408091E30284FD0BC084E090E02196F6
:100BC0002817390744F461E08E810E949F02EECF1E
:100BD00088E090E0F4CF8BE39DE00197F1F760E0CF
:100BE0008091D8020E944B0260E08091DA020E945C
:100BF0004B028091D9028F3F19F060E00E944B02B6
:100C00008091E30284FD34C063E084ED92E00E94B1
:100C10001F05CBE4D6E4CE010197F1F763E084ED44
:100C200092E00E941F052197F1F763E084ED92E0C6
:100C30000E941F0583E592E00197F1F762E084EDE1
:100C400092E00E941F058091E30280620E949F054E
:100C500084E08093E4028CE00E949F050E94A50539
:100C600082E08093E50286E0DF91CF910C949F05AE
:100C700080620E949F058BE496E40197F1F78091D2
:100C8000E30280620E949F0583E592E00197F1F7FD
:100C90008091E30280620E949F05D5CF9091E70288
:100CA000691710F06FEF690FE62FF0E0EC52FD4F7F
:100CB0009489890F80680C949F0541E00E944C053F
:100CC00081E090E00895FB0101900020E9F7319761
:100CD000AF01461B570BDC01ED91FC910280F381C3
:100CE000E02D09946115710511F00C94630690E0F4
:100CF00080E00895CF93DF93BC0183E292E00E94ED
:100D00007206EC016EE171E083E292E00E946306FC
:100D10008C0F9D1FDF91CF9108958F929F92AF927C
:100D2000BF92EF92FF920F931F93CF93DF93CDB7B4
:100D3000DEB7A1970FB6F894DEBF0FBECDBF7C0122
:100D4000FA01CB0119A2223008F42AE08E010F5DCE
:100D50001F4F822E912CB12CA12CBF01A501940113
:100D60000E94FF0CF901CA016A30ECF4605DD80101
:100D70006E938D01232B242B252B79F7BD01C70101
:100D80000E947206A1960FB6F894DEBF0FBECDBFCB
:100D9000DF91CF911F910F91FF90EF90BF90AF9097
:100DA0009F908F900895695CE2CFCF92DF92EF928F
:100DB000FF926C01990FEE08FF08F7FE18C041E0A2
:100DC0006DE284ED92E00E944C0544275527BA015C
:100DD0004C195D096E097F092AE084ED92E00E94BA
:100DE0008D060196FF90EF90DF90CF9008952AE056
:100DF000B701A60184ED92E0FF90EF90DF90CF90D5
:100E00000C948D060C9472062F923F924F925F9233
:100E10006F927F928F929F92AF92BF92CF92DF920A
:100E2000EF92FF921F93CF93DF93EC016A017B0156
:100E3000722EAB019601CB01B6010E946E0F61E2EA
:100E400071E0811126C046015701E894B7F82FEFF1
:100E50003FEF4FE75FE7C501B4010E946E0F8111BC
:100E60000CC02FEF3FEF4FE75FE7C501B4010E94D1
:100E70009D0D65E271E0181664F02FEF3FEF4FE72C
:100E80005FE4C701B6010E94FC0E1816B4F469E2D3
:100E900071E0CE01DF91CF911F91FF90EF90DF9035
:100EA000CF90BF90AF909F908F907F906F905F900A
:100EB0004F903F902F900C9463062FEF3FEF4FE73A
:100EC0005FECC701B6010E949D0D87FDE0CF20E0D9
:100ED00030E0A901C701B6010E949D0D312C212CE3
:100EE00087FF0DC0E881F9810190F081E02D6DE26E
:100EF000CE0109951C01F7FAF094F7F8F09410E090
:100F000060E070E080E09FE3711641F020E030E0A7
:100F100040E251E40E94A20D1F5FF6CFA7019601A7
:100F20000E94310D2B013C010E941B0E4B015C0104
:100F30002AE0BC01A401CE010E948D067C01E20CD6
:100F4000F31C1123E1F1C501B4010E944A0E9B017B
:100F5000AC01C301B2010E94300D4B015C01E8817C
:100F6000F9810190F081E02D6EE2CE010995E80E45
:100F7000F91E115020F120E030E040E251E4C501BB
:100F8000B4010E94010F2B013C010E941B0E4B017A
:100F9000B12CA12C2AE0B501A401CE010E948D063E
:100FA000E80EF91EC501B4010E944A0E9B01AC0176
:100FB000C301B2010E94300D4B015C01DACFC701C1
:100FC000DF91CF911F91FF90EF90DF90CF90BF9076
:100FD000AF909F908F907F906F905F904F903F90D9
:100FE0002F900895CF93DF93242FAB01BC0183E2B0
:100FF00092E00E940407EC016EE171E083E292E06E
:101000000E9463068C0F9D1FDF91CF9108951F9260
:101010000F920FB60F9211242F933F934F935F932C
:101020006F937F938F939F93AF93BF93EF93FF93B0
:1010300083E292E00E946A01FF91EF91BF91AF912C
:101040009F918F917F916F915F914F913F912F91E0
:101050000F900FBE0F901F9018951F920F920FB612
:101060000F9211242F938F939F93EF93FF93E0910F
:101070003302F09134028081E0913902F0913A021A
:1010800082FD1BC0908180913C028F5F8F73209105
:101090003D02821741F0E0913C02F0E0ED5DFD4F32
:1010A000958F80933C02FF91EF919F918F912F91AB
:1010B0000F900FBE0F901F9018958081F4CF1F9254
:1010C0000F920FB60F9211242F933F938F939F93FC
:1010D000AF93BF9380911F0290912002A0912102B3
:1010E000B09122023091100223E0230F2D3758F5E2
:1010F0000196A11DB11D2093100280931F029093B1
:101100002002A0932102B0932202809111029091BB
:101110001202A0911302B09114020196A11DB11DFB
:101120008093110290931202A0931302B0931402C1
:10113000BF91AF919F918F913F912F910F900FBED3
:101140000F901F90189526E8230F0296A11DB11D40
:10115000D2CFE3E2F2E01382128288EE93E0A0E0C5
:10116000B0E084839583A683B78384E091E0918384
:10117000808385EC90E09587848784EC90E0978766
:10118000868780EC90E0918B808B81EC90E0938B54
:10119000828B82EC90E0958B848B86EC90E0978B31
:1011A000868B118E128E138E148EE4EDF2E0138274
:1011B000128286E191E09183808389E084838FEFBE
:1011C000858388E0868384E0878385E0808786E066
:1011D000818787E082871386148615861686178690
:1011E00081E00E94AD05E0ECF2E080E882831382AA
:1011F00014821582168280E090E0A0E8BFE3878326
:101200009087A187B287138614861586168617865F
:10121000108A118A128A138A0C947902789484B500
:10122000826084BD84B5816084BD85B5826085BDE2
:1012300085B5816085BD80916E00816080936E0070
:101240001092810080918100826080938100809162
:101250008100816080938100809180008160809313
:1012600080008091B10084608093B1008091B000D3
:1012700081608093B00080917A00846080937A00CE
:1012800080917A00826080937A0080917A008160F8
:1012900080937A0080917A00806880937A0010921F
:1012A000C10061E083E10E949F0261E08AE00E9448
:1012B0009F0261E08BE00E949F0261E080E10E945A
:1012C0009F0261E08FE00E949F02E0913302F09163
:1012D0003402C2E0C083E0913302F0913402108204
:1012E000E0912F02F09130021082E0913102F091F2
:1012F000320280E1808310923B02E0913702F0914C
:10130000380286E08083E0913502F09136028081D8
:1013100080618083E0913502F0913602808188609F
:101320008083E0913502F09136028081806880836D
:10133000E0913502F091360280818F7D808382E0DA
:101340000E94AD0560E080E00E944E066DE271E013
:1013500084ED92E00E94720660E08BE00E944B02F6
:1013600060E08AE00E944B0270E060E083E10E944E
:10137000D00270E060E080E10E94D00270E060E0A6
:101380008FE00E94D002C093C00283E08093C1022C
:1013900060E082E00E949F0261E08091C1020E94B1
:1013A0009F0260E08091C1020E944B020E9479027C
:1013B0008CE391E00E947A0669E571E083E292E0B5
:1013C0000E9402070E947E0342E050E00E94F20762
:1013D00062E671E083E292E00E94020784E10E94EB
:1013E000D70342E050E00E94F20763E771E083E236
:1013F00092E00E94020785E00E94020442E050E071
:101400000E94F20761E871E083E292E00E94020725
:1014100085E00E94FC0441E050E00E94F20789EE62
:101420009EE2A3EEBCE38093C7029093C802A09310
:10143000C902B093CA028AE00E94D7030E94140E28
:101440006093C3027093C4028093C5029093C60256
:101450008FE891E00E947A0669E571E083E292E00C
:101460000E9402070E947E0342E050E00E94F207C1
:1014700062E671E083E292E00E94020784E10E944A
:10148000D70342E050E00E94F20763E771E083E295
:1014900092E00E94020785E00E94020442E050E0D0
:1014A0000E94F20761E871E083E292E00E94020785
:1014B00085E00E94FC0441E050E00E94F2078BEAC4
:1014C00091E00E947A0610E488248A9493E0992E91
:1014D000A12CB12CC0E0D0E065EB71E083E292E09A
:1014E0000E94020781E00E94FC0420E030E04AE70D
:1014F00054E40E94A20DAB01BC0121E083E292E022
:101500000E94040764EC71E083E292E00E9402070B
:101510008AE00E94FC0445E050E00E94F20710932C
:101520007C0080917A00806480937A0080917A00B8
:1015300086FDFCCF80917800A0917900BA2FA82F6A
:1015400023E630E00E94730FA50194010E94E00C95
:1015500030931E0220931D02B9018CE00E94D0023C
:1015600081E00E94FC0420E030E04AE754E40E945D
:10157000A20D6093190270931A0280931B0290933C
:101580001C0261E081E00E944E0681E00E94FC04A2
:1015900020E030E04AE754E40E94A20DAB01BC0118
:1015A00021E083E292E00E94040762E080E00E9472
:1015B0004E066091190270911A0280911B0290915F
:1015C0001C029B01AC010E94310D609315027093C7
:1015D000160280931702909318028AE00E94FC047E
:1015E00045E050E00E94F2070E942D032B013C01D0
:1015F00088EBC82E8BE0D82EE12CF12C0E942D0315
:101600006419750986099709683E7340810591053B
:10161000A8F321E0C21AD108E108F10888EE480ECB
:1016200083E0581E611C711CC114D104E104F10453
:1016300029F70E94A505C0901502D0901602E090EF
:101640001702F090180220E030E0A901C701B601AE
:101650000E94FC0E20E030E040E05FE387FDA1C186
:10166000C701B6010E94310D0E94140E072E000C16
:10167000880B990B0E944C0E20E030E040EE50E4C5
:101680000E949D0D18160CF44CC00E94A50560E048
:1016900080E00E944E0661ED71E084ED92E00E94D0
:1016A00072066CED71E084ED92E00E94720661E0DA
:1016B00080E00E944E064091150250911602609102
:1016C00017027091180222E084ED92E00E94040754
:1016D00063EE71E084ED92E00E94020780911D02AA
:1016E00090911E020E94D5066AEE71E084ED92E0B0
:1016F0000E9402076FEF70E080E10E94D00260E07C
:101700008BE00E944B0270E060E083E10E94D00217
:1017100070E060E08FE00E94D00261E08AE00E9409
:101720004B02C0901502D0901602E0901702F09084
:10173000180220E030E0A901C701B6010E94FC0EAA
:1017400020E030E040E05FE387FD30C1C701B60133
:101750000E94310D0E94140E072E000C880B990B6D
:101760000E944C0E20E030E040E051E40E949D0DCC
:1017700081114CC00E94A50560E080E00E944E06E9
:1017800060EF71E084ED92E00E9472066DED71E011
:1017900084ED92E00E94720661E080E00E944E06B5
:1017A0004091150250911602609117027091180233
:1017B00022E084ED92E00E94040763EE71E084ED84
:1017C00092E00E94020780911D0290911E020E94E9
:1017D000D5066AEE71E084ED92E00E9402076FEF99
:1017E00070E083E10E94D00260E08BE00E944B0237
:1017F00070E060E080E10E94D00270E060E08FE085
:101800000E94D00261E08AE00E944B02C090150263
:10181000D0901602E0901702F090180220E030E01D
:10182000A901C701B6010E94FC0E20E030E040E0B3
:101830005FE387FDC0C0C701B6010E94310D0E9461
:10184000140E0E944C0E20E030E040E151E40E9472
:10185000FC0E87FD4CC00E94A50560E080E00E9460
:101860004E066CEF71E084ED92E00E9472066CED22
:1018700071E084ED92E00E94720661E080E00E94D7
:101880004E06409115025091160260911702709118
:10189000180222E084ED92E00E94040763EE71E0FA
:1018A00084ED92E00E94020780911D0290911E0239
:1018B0000E94D5066AEE71E084ED92E00E94020774
:1018C00070E060E080E10E94D00261E08BE00E9465
:1018D0004B0270E060E083E10E94D0026FEF70E0A5
:1018E0008FE00E94D00260E08AE00E944B0280916B
:1018F0001D0290911E02CD970CF448C00E94A505D0
:1019000060E080E00E944E0667E072E084ED92E0C5
:101910000E9472066CED71E084ED92E00E94720606
:1019200061E080E00E944E0640911502509116023F
:10193000609117027091180222E084ED92E00E94FB
:10194000040763EE71E084ED92E00E94020780914B
:101950001D0290911E020E94D5066AEE71E084ED90
:1019600092E00E9402076FEF70E083E10E94D002D4
:1019700061E08BE00E944B0270E060E08FE00E942B
:10198000D0026FEF70E080E10E94D002209709F44E
:10199000A3CD0E945601882309F49ECD0E94000029
:1019A0009BCDC701B6010E94300D5ECEC701B601C6
:1019B0000E94300DCFCEC701B6010E94300D3FCF3F
:1019C000052E97FB1EF400940E94F70C57FD07D0DC
:1019D0000E94FF0C07FC03D04EF40C94F70C5095BA
:1019E0004095309521953F4F4F4F5F4F089590950B
:1019F0008095709561957F4F8F4F9F4F0895A1E21D
:101A00001A2EAA1BBB1BFD010DC0AA1FBB1FEE1F78
:101A1000FF1FA217B307E407F50720F0A21BB30BC3
:101A2000E40BF50B661F771F881F991F1A9469F73F
:101A300060957095809590959B01AC01BD01CF019B
:101A40000895A29FB001B39FC001A39F700D811D97
:101A50001124911DB29F700D811D1124911D0895B7
:101A60005058BB27AA270E94480D0C94C20E0E9412
:101A7000B40E38F00E94BB0E20F039F49F3F19F4E9
:101A800026F40C94B10E0EF4E095E7FB0C94AB0E2B
:101A9000E92F0E94D30E58F3BA1762077307840721
:101AA000950720F079F4A6F50C94F50E0EF4E09568
:101AB0000B2EBA2FA02D0B01B90190010C01CA0108
:101AC000A0011124FF27591B99F0593F50F4503EB3
:101AD00068F11A16F040A22F232F342F4427585FA5
:101AE000F3CF469537952795A795F0405395C9F7BD
:101AF0007EF41F16BA0B620B730B840BBAF0915075
:101B0000A1F0FF0FBB1F661F771F881FC2F70EC013
:101B1000BA0F621F731F841F48F4879577956795E6
:101B2000B795F7959E3F08F0B0CF9395880F08F0D2
:101B30009927EE0F9795879508950E94870E08F4D0
:101B400081E008950E94B60D0C94C20E0E94BB0E57
:101B500058F00E94B40E40F029F45F3F29F00C9435
:101B6000AB0E51110C94F60E0C94B10E0E94D30ED4
:101B700068F39923B1F3552391F3951B550BBB27BC
:101B8000AA2762177307840738F09F5F5F4F220F01
:101B9000331F441FAA1FA9F335D00E2E3AF0E0E8F8
:101BA00032D091505040E695001CCAF72BD0FE2F42
:101BB00029D0660F771F881FBB1F261737074807D6
:101BC000AB07B0E809F0BB0B802DBF01FF2793588E
:101BD0005F4F3AF09E3F510578F00C94AB0E0C9499
:101BE000F60E5F3FE4F3983ED4F3869577956795BC
:101BF000B795F7959F5FC9F7880F911D96958795C3
:101C000097F90895E1E0660F771F881FBB1F6217E1
:101C100073078407BA0720F0621B730B840BBA0B9F
:101C2000EE1F88F7E09508950E941B0E6894B1118D
:101C30000C94F60E08950E94DB0E88F09F5798F0E2
:101C4000B92F9927B751B0F0E1F0660F771F881FC1
:101C5000991F1AF0BA95C9F714C0B13091F00E94DB
:101C6000F50EB1E008950C94F50E672F782F8827B4
:101C7000B85F39F0B93FCCF3869577956795B39502
:101C8000D9F73EF490958095709561957F4F8F4F71
:101C90009F4F0895E89409C097FB3EF49095809576
:101CA000709561957F4F8F4F9F4F9923A9F0F92F22
:101CB00096E9BB279395F695879577956795B795A0
:101CC000F111F8CFFAF4BB0F11F460FF1BC06F5F86
:101CD0007F4F8F4F9F4F16C0882311F096E911C098
:101CE000772321F09EE8872F762F05C0662371F0B9
:101CF00096E8862F70E060E02AF09A95660F771FCD
:101D0000881FDAF7880F9695879597F90895990FA8
:101D10000008550FAA0BE0E8FEEF16161706E807B5
:101D2000F907C0F012161306E407F50798F0621BD6
:101D3000730B840B950B39F40A2661F0232B242BAB
:101D4000252B21F408950A2609F4A140A6958FEFCA
:101D5000811D811D089597F99F6780E870E060E01C
:101D600008959FEF80EC089500240A941616170634
:101D700018060906089500240A941216130614067C
:101D800005060895092E0394000C11F4882352F0DF
:101D9000BB0F40F4BF2B11F460FF04C06F5F7F4F97
:101DA0008F4F9F4F089557FD9058440F551F59F07E
:101DB0005F3F71F04795880F97FB991F61F09F3F38
:101DC00079F087950895121613061406551FF2CF61
:101DD0004695F1DF08C0161617061806991FF1CFB1
:101DE00086957105610508940895E894BB276627D8
:101DF0007727CB0197F908950E94870E08F48FEF9B
:101E000008950E94140F0C94C20E0E94B40E38F074
:101E10000E94BB0E20F0952311F00C94AB0E0C9495
:101E2000B10E11240C94F60E0E94D30E70F3959F00
:101E3000C1F3950F50E0551F629FF001729FBB27C1
:101E4000F00DB11D639FAA27F00DB11DAA1F649F5D
:101E50006627B00DA11D661F829F2227B00DA11D10
:101E6000621F739FB00DA11D621F839FA00D611D96
:101E7000221F749F3327A00D611D231F849F600DB7
:101E8000211D822F762F6A2F11249F5750409AF0E0
:101E9000F1F088234AF0EE0FFF1FBB1F661F771F6C
:101EA000881F91505040A9F79E3F510580F00C9437
:101EB000AB0E0C94F60E5F3FE4F3983ED4F3869598
:101EC00077956795B795F795E7959F5FC1F7FE2BD7
:101ED000880F911D9695879597F908950E94870E12
:101EE000880B990B08950E94210DB7FF0895821B5E
:101EF000930B0895EE0FFF1F0590F491E02D0994C8
:101F0000F894FFCF000000008C01EC001901D9010A
:101F10004A0128013C01000000005D06EC0053036B
:101F200052030D0A006E616E00696E66006F766680
:101F300000097C43616C6962726174696E677C0040
:101F40004265666F72652073657474696E6720758B
:101F50007020746865207363616C653A0072656116
:101F6000643A2009090072656164206176657261D6
:101F700067653A200909006765742076616C7565AC
:101F80003A2009090067657420756E6974733A20F8
:101F900009090041667465722073657474696E671F
:101FA00020757020746865207363616C653A005217
:101FB000656164696E67733A005765696768742084
:101FC000696E204B473A0900097C20617665726191
:101FD00067653A09004E2D576569676874207C0073
:101FE00009537065656400094B67207C0900094B43
:101FF0006D2F6800412D4F2D5765696768747C000F
:102000004F2D576569676874207C002D2D2D2D2D6F
:042010002D207C0003
:107E0000112484B714BE81FFF0D085E080938100F7
:107E100082E08093C00088E18093C10086E0809377
:107E2000C20080E18093C4008EE0C9D0259A86E02C
:107E300020E33CEF91E0309385002093840096BBD3
:107E4000B09BFECF1D9AA8958150A9F7CC24DD24C4
:107E500088248394B5E0AB2EA1E19A2EF3E0BF2EE7
:107E6000A2D0813461F49FD0082FAFD0023811F036
:107E7000013811F484E001C083E08DD089C08234E0
:107E800011F484E103C0853419F485E0A6D080C0E4
:107E9000853579F488D0E82EFF2485D0082F10E0AE
:107EA000102F00270E291F29000F111F8ED06801E7
:107EB0006FC0863521F484E090D080E0DECF843638
:107EC00009F040C070D06FD0082F6DD080E0C81688
:107ED00080E7D80618F4F601B7BEE895C0E0D1E017
:107EE00062D089930C17E1F7F0E0CF16F0E7DF06D8
:107EF00018F0F601B7BEE89568D007B600FCFDCFD4
:107F0000A601A0E0B1E02C9130E011968C91119780
:107F100090E0982F8827822B932B1296FA010C0160
:107F200087BEE89511244E5F5F4FF1E0A038BF0790
:107F300051F7F601A7BEE89507B600FCFDCF97BE46
:107F4000E89526C08437B1F42ED02DD0F82E2BD052
:107F50003CD0F601EF2C8F010F5F1F4F84911BD097
:107F6000EA94F801C1F70894C11CD11CFA94CF0C13
:107F7000D11C0EC0853739F428D08EE10CD085E9AC
:107F80000AD08FE07ACF813511F488E018D01DD067
:107F900080E101D065CF982F8091C00085FFFCCF94
:107FA0009093C60008958091C00087FFFCCF809118
:107FB000C00084FD01C0A8958091C6000895E0E648
:107FC000F0E098E1908380830895EDDF803219F02E
:107FD00088E0F5DFFFCF84E1DECF1F93182FE3DFCA
:107FE0001150E9F7F2DF1F91089580E0E8DFEE27F6
:047FF000FF270994CA
:027FFE00040479
:00000001FF
